:020000041000EA
:1000000000B5324B212058609868022188439860DF
:10001000D860186158612E4B002199600221596106
:100020000121F02299502B49196001219960352056
:1000300000F044F80222904214D00621196600F024
:1000400034F8196E01211966002018661A6600F04E
:100050002CF8196E196E196E052000F02FF8012189
:100060000842F9D1002199601B49196000215960AB
:100070001A491B48016001219960EB211966A021F2
:10008000196600F012F800219960164914480160C1
:100090000121996001BC002800D000471248134993
:1000A000086003C880F30888084703B5996A0420EC
:1000B0000142FBD001200142F8D103BD02B5186610
:1000C0001866FFF7F2FF186E186E02BD00000240BE
:1000D000000000180000070000035F00212200005C
:1000E000F4000018222000A00001001008ED00E03C
:1000F00000000000000000000000000074B24E7A12
:1001000000200420F7010010C3010010C5010010F9
:10011000C1010010C1010010C1010010C101001097
:10012000C1010010C1010010C1010010C701001081
:10013000C1010010C1010010C9010010CB01001065
:10014000CD010010CD010010CD010010CD01001037
:10015000CD010010CD010010CD010010CD01001027
:10016000CD010010CD010010CD010010CD01001017
:10017000CD010010CD010010CD010010CD01001007
:10018000CD010010CD010010CD010010CD010010F7
:10019000CD010010CD010010CD010010CD010010E7
:1001A000CD010010CD010010CD010010CD010010D7
:1001B000CD010010CD010010CD010010CD010010C7
:1001C00000BE00BE00BE00BE00BE00BE00F04BF888
:1001D000103800BEF2EB8871A02B0510C42B05105F
:1001E0003402001090A31AE700202149086006C8D5
:1001F00081F3088810471F48006800282FD10DA4FC
:100200000ECC002902D000F012F8F9E71A491B4A77
:10021000002000E001C19142FCD1194988471949E9
:1002200088471949884700BEFDE701C901C29A42C3
:10023000FBD37047C42B0510C0000020DC0D00204C
:10024000E03805100000042000000420E03805100C
:1002500000100420001004200000000070470B482C
:1002600004F0D6FB0047EFF30580C0B270470000F2
:1002700008ED00E0000000D0E00D00201CC90220C5
:10028000492E0010011100106D2F0010575600006C
:1002900006005250ABB36053D8AC01100600525068
:1002A000861C0302E8AC0110060052505422A29DA5
:1002B000F4AC011005005250DE65F468E03805101A
:1002C000F8B5C04610B5064C2378002B07D1054B76
:1002D000002B02D0044800E000BF0123237010BDB2
:1002E000301000200000000020A70110044B10B5C2
:1002F000002B03D00349044800E000BF10BDC046F6
:10030000000000003410002020A7011070B5050087
:1003100011000B48140005F081FA0A4BEA58944684
:100320006444EC5080231B019C4201DA002070BD24
:100330000022054B0548EA5005F0CEF9F6E7C04625
:1003400020A701100C1000001010000034A70110AD
:100350000023012100B583B001930E4B1A784A4067
:100360001A701B78002B0ED00B4B0021186801AAC5
:1003700009F0A0FF019B002B03D08022074B520500
:100380001A6003B000BD064B0021186808F05AFC43
:10039000F0E7C0460EC9022088C6002004ED00E048
:1003A000FC160020064B00B51868002383B00093AC
:1003B00000220021023309F009FF03B000BDC0464E
:1003C00088C6002010B5040000292ED11C4805F075
:1003D00083F901236068237200281AD0002110F0ED
:1003E00075FA00220021606810F08EFA0021606822
:1003F00010F076FA0021606810F06CFA0021606855
:1004000010F074FA606810F023FF011E11D1002370
:1004100063602068002807D0002110F057FA206898
:1004200010F016FF0023236010BD064805F0F6F912
:10043000CFE7054805F0F2F9606810F075FBE6E7D4
:1004400054A7011064A7011074A701100B0070B528
:1004500005000C000D3306D0034805F0DFF921003C
:100460002800FFF7AFFF70BD94A7011070B5012001
:10047000224904F08DFF041E3CD0214B1868043043
:1004800019F0FAFA1F4A01001F4805F0C7F92E209B
:1004900010F03EFC051E29D000211A4A0FF0E4FEA0
:1004A000002813D1012128000FF05AFF20600028F6
:1004B00015D0210010F00AFA2068144910F01CFA37
:1004C0000AF01EFB012002F0E3F8F9E7104805F0FE
:1004D000A5F9012120004942FFF774FF70BD0D48C6
:1004E00005F0FAF8280010F0B3FEF2E70A4805F02C
:1004F000F3F8EEE7094805F0EFF8EFE71810000011
:10050000B4C3002092100000C8A7011015100010FD
:1005100004A8011020A80110ECA70110ACA701103D
:10052000F0B5DE4657464E464546E0B595B0222228
:1005300000210BA804F064FF02AB9C46BC4B1727BC
:100540009B4667440122BB4B52421B6808A9180016
:10055000049308F099FD0028F4D0B74B1B78002BCA
:10056000F0D0B649099804F064FEB54904F04DFE98
:100570008421C90504F046FEB24B1860089804F0C7
:10058000AFFEB14A0090019111210BA804F0F6F9D9
:10059000AC4B186804F0A4FE02900391099804F093
:1005A0009FFE0090019102A8844635236344180001
:1005B0001121A64A04F0E2F90BAB04930023059342
:1005C0000498824619F0C6FEC823059A40081B1AF3
:1005D000002A01D188231B1A0F221D00082400269F
:1005E00095432543EDB21B013A0027211C433D7082
:1005F00001235846009600F0A3FE962000218000BB
:1006000002F02EF80423984643462B433A003B70F1
:10061000272101235846009600F092FE96200021E3
:10062000800002F01DF801233A0027213D70584652
:10063000009600F085FE9620E4B20021800002F0D2
:100640000FF801233A003C7027215846009600F02D
:1006500077FE96200021800002F002F843462343F3
:100660003A003B70272101235846009600F068FEAF
:1006700096200021800001F0F3FF01233C703A0036
:1006800027215846009600F05BFE9620002180004E
:1006900001F0E6FF049BD0461C7809239946002C04
:1006A00064D0012325009C460E339D434B46002613
:1006B0001D43EDB224013A0027211C433D70012364
:1006C00058460096E04400F03BFE96200021800052
:1006D00001F0C6FF04239A4653462B433A003B7071
:1006E000272101235846009600F02AFE962000217B
:1006F000800001F0B5FF01233A0027213D705846E4
:10070000009600F01DFE9620E4B20021800001F06A
:10071000A7FF01233A003C7027215846009600F0BD
:100720000FFE96200021800001F09AFF53462343DC
:100730003A003B70272101235846009600F000FE46
:1007400096200021800001F08BFF01233C703A00CD
:1007500027215846009600F0F3FD962000218000E6
:1007600001F07EFF43461C78002C9AD1049B113384
:100770000493059B012B02D00123059320E7FA2067
:1007800000240825800009F0EFF93A003D700123AC
:1007900027215846009400F0D3FD962000218000C8
:1007A00001F05EFF0C233A003B7027210B3B5846BB
:1007B000009400F0C5FD96200021800001F050FF5C
:1007C0003A003D70012327215846009400F0B8FDFF
:1007D000962010350021800001F042FF3A000123ED
:1007E0003D7027215846009400F0AAFD9620002174
:1007F000800001F035FF1C233A003B7027211B3B92
:100800005846009400F09CFD96200021800001F0E5
:1008100027FF3D7001233A0027215846009400F03D
:100820008FFD96200021800001F01AFF8AE6C04665
:1008300080040020FC1600200EC902200000104198
:100840000000A040F425002034A8011048A80110A1
:10085000F0B5DE4657464E468024C0B5D02788B056
:100860003F06240214220021834603A804F0C8FD99
:100870007C621420BC6101F00BFF00230125994626
:100880009A460126BC62002406E0013401200021C2
:1008900001F0E6FEFF2C37D07B68DB0B3340AB4228
:1008A000F3D04B467D68ED0B3540032B11D94B46F9
:1008B0001E420ED15346DB089B0003AAD258019278
:1008C00052002E2C00D9324303A9CA5001239C4662
:1008D000E24401239C46E1444B46552BD3D1534679
:1008E000272B0BD9FF22039C0498059D069E2318F5
:1008F0005B199B191340079A9A4207D008B0E0BCD5
:10090000BB46B246A946F0BD7B68E8E7230218184B
:1009100004F0C4FC174904F078FC1749071C04F0E4
:10092000B7FC002820D15B461F60FE232802DB01B4
:100930001840801904F0B2FC0E4904F066FC0F491F
:10094000041C04F0A5FC002803D0280004F0A6FC39
:10095000041C5B465C602B06D0D580231B069C469E
:100960005B4664445C60C9E7200004F097FC5B468A
:100970001860DAE7000020410000C8420000FA4297
:1009800010B5094C84B001A8FFF762FF01220121D4
:100990005242002009F0DCFB012200232068524271
:1009A00001A908F0EFF9EEE7FC160020F0B5DE46ED
:1009B00057464E4645460F240823E0B585B06C44A3
:1009C00099462370962600230027FE4D9846B600D0
:1009D0002200009327210133280000F0B1FC3000F1
:1009E000390001F03DFE0C239B4623704346220054
:1009F000009327210133280000F0A2FC30003900C9
:100A000001F02EFE4B46237043462200009327211F
:100A10000133280000F094FC3000390001F020FE82
:100A200038239A462370434622000093272101333E
:100A3000280000F085FC3000390001F011FE42462C
:100A40003C2327212370280000923B3B220000F02A
:100A500077FC3000390001F003FE52462270424616
:100A60000123009227212200280000F069FC3000B9
:100A7000390001F0F5FD4A462270424601230092FA
:100A800027212200280000F05BFC3000390001F033
:100A9000E7FD5A4622704246012300922721220098
:100AA000280000F04DFC3000390001F0D9FD4A4625
:100AB000227042460123009227212200280000F0E4
:100AC0003FFC3000390001F0CBFD52462270424617
:100AD0000123009227212200280000F031FC300081
:100AE000390001F0BDFD42463C2327212370280038
:100AF00000923B3B220000F023FC3000390001F063
:100B0000AFFD524622704246012300922721220067
:100B1000280000F015FC3000390001F0A1FD4A4624
:100B2000227042460123009227212200280000F073
:100B300007FC3000390001F093FD5A46227042460E
:100B40000123009227212200280000F0F9FB300049
:100B5000390001F085FD4A46227042460123009289
:100B600027212200280000F0EBFB3000390001F0C3
:100B700077FD52462270424601230092272122002F
:100B8000280000F0DDFB3000390001F069FD3C2356
:100B9000237043462200009327210133280000F0F0
:100BA000CFFB3000390001F05BFD53462370434614
:100BB0002200009327210133280000F0C1FB300000
:100BC000390001F04DFD4B4623704346220000934F
:100BD00027210133280000F0B3FB3000390001F079
:100BE0003FFD5B46237043462200009327210133DB
:100BF000280000F0A5FB3000390001F031FD4B4624
:100C0000237043462200009327210133280000F07F
:100C100097FB3000390001F023FD28239A4623700A
:100C200043462200009327210133280000F088FB6F
:100C30003000390001F014FD42462C232721237097
:100C4000280000922B3B220000F07AFB3000390094
:100C500001F006FD524622704246012300922721F0
:100C60002200280000F06CFB3000390001F0F8FC95
:100C70004A46227042460123009227212200280082
:100C800000F05EFB3000390001F0EAFC5A462270A9
:100C900042460123009227212200280000F050FB49
:100CA0003000390001F0DCFC4A4622704246012344
:100CB000009227212200280000F042FB300039007A
:100CC00001F0CEFC41466822012322702800220058
:100CD0000091273100F034FB3000390001F0C0FCF6
:100CE00041466C2322002370280000916B3B273182
:100CF00000F026FB3000390001F0B2FC68222270BF
:100D000042460123009227212200280000F018FB10
:100D10003000390001F0A4FC524622704246012303
:100D2000009227212200280000F00AFB3000390041
:100D300001F096FC2C2323704346220000932721C8
:100D40000133280000F0FCFA3000390001F088FC83
:100D50005346237043462200009327210133280085
:100D600000F0EEFA3000390001F07AFC882323709D
:100D70009A4643462200009327210133280000F0C1
:100D8000DFFA3000390001F06BFC8C2323704346FE
:100D90002200009327210133280000F0D1FA30000F
:100DA000390001F05DFC5346237043462200009356
:100DB00027210133280000F0C3FA3000390001F088
:100DC0004FFC01E0800400204B4623704346220084
:100DD000009327210133280000F0B2FA30003900D7
:100DE00001F03EFC5B46237043462200009327211E
:100DF0000133280000F0A4FA3000390001F030FC83
:100E00004B462370434622000093272101332800DC
:100E100000F096FA3000390001F022FCC82323705C
:100E20009A4643462200009327210133280000F010
:100E300087FA3000390001F013FCCC2323704346BD
:100E40002200009327210133280000F079FA3000B6
:100E5000390001F005FC53462370434622000093FD
:100E600027210133280000F06BFA3000390001F02F
:100E7000F7FB4B46237043462200009327210133A2
:100E8000280000F05DFA3000390001F0E9FB5B4614
:100E9000237043462200009327210133280000F0ED
:100EA0004FFA3000390001F0DBFB4B46237043461C
:100EB0002200009327210133280000F041FA30007E
:100EC000390001F0CDFB18232370994643462200D8
:100ED000009327210133280000F032FA3000390056
:100EE00001F0BEFB1C232370434622000093272100
:100EF0000133280000F024FA3000390001F0B0FB83
:100F00004B462370434622000093272101332800DB
:100F100000F016FA3000390001F0A2FB05B0F0BC79
:100F2000BB46B246A946A046F0BDC0460122F0B578
:100F3000274B97B0524204000D00186806A908F02C
:100F4000A3F806A8FFF784FC079E2249301C04F092
:100F500070F9214904F059F98421C90504F052F9C6
:100F60001E4B1F4F186004F0BBF904900591301C14
:100F700004F0B6F902900391069804F0B1F9194A09
:100F800000900191322109A803F0F8FC260009A97C
:100F9000154804F043FC80210936144A09AB0901C5
:100FA000300003F0EBFC0100E051114804F036FC86
:100FB000012331002800E25B11F0CAFF002801D1B3
:100FC00017B0F0BD01000B4804F028FCF8E7C0465C
:100FD000FC160020000010410000A040F425002075
:100FE0000C10000098A80110C8A801105CA80110FE
:100FF00060A801107CA8011070B504000D00101E3F
:1010000005D00EF0F3FD29002000FFF78FFF002030
:1010100070BDC04670B505000C00161E1BD100291E
:1010200019D0124804F058FB290020006C600FF022
:101030004DFC20000E490FF04DFC20000D490FF033
:101040004FFC20000C490FF051FC21002800FFF755
:101050006DFF002070BD094804F03EFB2800310000
:10106000FFF7B0F906204042F4E7C046F0A80110AF
:10107000F90F00100D0300104D040010DCA8011042
:1010800030B5002283B00C210A2007F02BFE124B52
:1010900080241860114B0125019303236400220072
:1010A00000930F4900230F4808F060FA0E4B22000E
:1010B00001930E49002300950D4808F057FA0D4B97
:1010C00022000D490193009500230C4808F04EFAC8
:1010D00008F08CFB03B030BDFC16002088C6002051
:1010E00004A901108109001090C6002010A9011068
:1010F0006D0400102C2A00201CA9011021050010ED
:1011000030B583B004F096FB0F2000F061FC102096
:1011100000F05EFCD02380221B0652029A6201215D
:101120000022102000F084FB304B0122042110200B
:1011300000F0D4FB2E492F4800F0D8F803210420FA
:1011400000F05EFB0321052000F05AFB0022012184
:10115000042000F06DFB00220121052000F068FB57
:10116000FA21254B0122009324480023890009F02D
:1011700007FB041E30D008F033FD002302000121DC
:101180002000009309F058FB0400012806D01C48F9
:1011900004F0A2FA0124200003B030BDFFF706FCE2
:1011A00009F084FC00281CD109F0A8FB154804F0C4
:1011B00093FA154B154A1649164809F0ADFB051E62
:1011C00006D1154804F088FA2C00FFF759FFE2E732
:1011D000124804F081FADEE7114804F07DFA013488
:1011E000D9E7104804F078FAD5E7C046510300105B
:1011F000A086010080040020A503001024A901108E
:1012000048A9011078A901103075000004004000C1
:1012100090A901109CA90110B4A90110A0A9011066
:1012200030A9011060A90110F8B5DE4657464E46B8
:1012300045468346E0B505200C0002F01BF8060089
:1012400060082100801903F03DFC4300984680446B
:1012500007000521404603F035FC3B1A9A46204B17
:101260008146700080199C4234D81E4903F02AFC44
:10127000451C5B461C680023E36622680433534028
:1012800006221A4080235B0123431A605346E36120
:101290004B462362434601204F2B03D95021404641
:1012A00003F010FCA0232200E0508023E06F7C328A
:1012B00045402D045B0113432D0C1D6001233900B3
:1012C0003000E36603F0FEFBF0BCBB46B246A94625
:1012D000A046F8BD044903F0F5FB451CC9E7C0462C
:1012E0003F420F008096980040787D01104A70B50B
:1012F000821A53425A41072352429A430D4B1032ED
:101300001A600D4B0D4C1A601500A3689D432B1EEF
:10131000FAD166240268FF340571D5661460633C17
:101320008833FF3CD5639563D450FFF77DFF70BDD4
:101330008004002000E0004000F0004000C00040B9
:10134000F0B557464E464546DE4690460022E0B58B
:1013500083B01E000CAB1B7884469A460368DA669D
:1013600001325960DA66002E4FDD51464A40520282
:1013700001928022914632008025771E0020464649
:1013800010219046AD000024002804D16246147953
:10139000621E9441A40200229346B8421AD0325CE5
:1013A00022435C4622431A615A6B1142FCD04A46E2
:1013B0009C58002C11D1B84222D001308045E2D196
:1013C000634652461A7103B0F0BCBB46B246A9460A
:1013D000A046F0BD019A9346E1E75A6D012293467B
:1013E0005A6B2A42FCD01A6E5A46002AE5D0002CCD
:1013F00003D0E30701D42307E2D402204042DFE711
:101400005246002AD9D1D346EAE70020D8E7C046A1
:10141000EFF3108072B6034A1368002BFCD0BFF3C1
:101420005F8F70472C0100D0BFF35F8F0022024B0B
:101430001A6080F3108870472C0100D070B5EFF36C
:10144000108C72B60D4D2B68002BFCD0BFF35F8F54
:101450000724CB08C618C05C01230C40A3401C0025
:101460000440034207D103433370BFF35F8F2C6006
:101470008CF3108870BD100001F07AFD2C0100D0B3
:10148000F8B54746CE46884680B5EFF3108C72B665
:10149000214D2C68002CFCD0BFF35F8F9A422CD8D2
:1014A000D4080727055D061901241740BC402C42CB
:1014B0001FD007210127894609E0D408055D0619D8
:1014C0004C4639001440A1400C00294211D0013291
:1014D0009342F2D201204042BFF35F8F00220E4BB5
:1014E0001A608CF3108800280FDBC0BCB946B046E8
:1014F000F8BD2C4310003470EEE7BFF35F8F00237C
:101500002B608CF31088012040424346002BECD026
:10151000089801F02DFDC0462C0100D030B5EFF346
:10152000108C72B60A4C2368002BFCD0BFF35F8F7F
:1015300007230122CD0819408A40435D9343435558
:10154000BFF35F8F002323608CF3108830BDC0464B
:101550002C0100D0024B18688007C00F7047C046AE
:1015600000C006400021044B044ABFF35F8F02C352
:101570009342FAD17047C046000100D0800100D0EC
:10158000044A1078431CDBB2172B00D910231370C8
:101590007047C0468804002000B5054B83B00100A9
:1015A000009318221F230348FFF76AFF03B000BD12
:1015B000C8A90110F8160020D0231B061B68F0B53F
:1015C0009A00454690464146894ADE46525857465B
:1015D00093465A1E934130224E465B421A401300F6
:1015E000844AE0B5944683B063440193824B082655
:1015F0009A463500083DEA081300019908339B001C
:101600005C58002C23D05B46002B2AD001230F27E7
:10161000994639002140274213D04B465246404656
:10162000AB4012581A420CD1072208002A409200FF
:1016300090400200EB0871483C339B001A50280090
:10164000D84724090135002C01D0B542E1D3083632
:10165000282ECED103B0F0BCBB46B246A946A04668
:10166000F0BD0F2319002140234207D047460E3B0F
:10167000AB406148C059184200D18DE02309F11FE9
:10168000002BE4D00F22100018401A420FD0012383
:1016900045468B40584A52591A4208D10722CB0876
:1016A000114089008840554A3C339B009850230ADA
:1016B000B11F002BCBD00F22100018401A420FD0C0
:1016C000012345468B404C4A52591A4208D1072201
:1016D000CB08114089008840484A3C339B00985011
:1016E000230B711F002BB2D00F22100018401A429A
:1016F00041D1230C311F002BA9D00F22100018401C
:101700001A4252D1230DF11E002BA0D00F2210003F
:1017100018401A425AD1230EB11E002B97D00F2227
:10172000100018401A420FD0012345468B40324A20
:1017300052591A4208D10722CB081140890088402B
:101740002E4A3C339B009850240F721E002C00D16F
:101750007DE701235146404693400958194200D085
:1017600075E70721D3080A40920094403C33234A8E
:101770009B009C506BE7012345468B401E4A525903
:101780001A42B6D10722CB081140890088401B4A73
:101790003C339B009850ACE707231D40AD00A940A7
:1017A000164B3C329200D15068E7012345468B40EE
:1017B000114A52591A42A5D10722CB08114089007B
:1017C00088400E4A3C339B0098509BE701234546D6
:1017D0008B40094A52591A429DD10722CB08114029
:1017E00089008840054A3C339B00985093E7C046E7
:1017F000F0160020004101406CC60020004001406E
:10180000094A830094464022634410B51C68C00016
:101810006240C02414408022520113431C60034BD9
:101820009C466044416010BD04C00140004001403E
:101830000A4B80009C4604236044002901D00C23FD
:101840000821002A00D10B00026853400C221A40E4
:1018500080235B01184302607047C04604C001400A
:10186000084B80009C466044002905D080239B01E2
:101870001843022303607047C0239B0118430223CF
:101880000360F8E704C00140D0231B061B6830B595
:101890000500581E83410F485C42844607203023D0
:1018A000284023408000EC08814020000A4D3C3055
:1018B00063448000A40041511B19002A04D08022F7
:1018C00092011343196030BDC02292011343196085
:1018D000F9E7C0460041014000400140F8B51E0054
:1018E000D0231B061C680700631E9C413023644202
:1018F0001C40224B15009C46C30807201A003840A4
:10190000800081403C321E48644492009B0011508C
:10191000E418002D11D080239B011C43D0232160AB
:101920001B061C68174FA4003B59002B11D0002E3A
:101930001ED03E51002D16D1F8BDC0239B011C4383
:10194000D02321601B061C680E4FA4003B59002BBE
:10195000EDD1002EEED000220D200B493E5100F0BB
:10196000B7F8002DE8D001210D2000F04FF8E3E793
:101970000D20054900F09EF9DBE7C046004101401B
:1019800000400140F0160020B9150010D023F0B53A
:10199000C64604001B0698461B680C4F9B00F8586F
:1019A0000D00160000B5044209D10443320029009D
:1019B000FC500D2000F08CF880BCB846F0BD01F062
:1019C000F5FA43461B689B00F858EEE76CC600200A
:1019D0000123D0228340120693629361094A830057
:1019E0009446402263441968C0004A40C021114017
:1019F0008022520113431960034B9C460523604427
:101A00004360704704C0014000400140012383400F
:101A1000002904D0034A1360034A13607047034A45
:101A20001360FBE780E200E000E100E080E100E01D
:101A300001238340014A13607047C04600E200E082
:101A4000084B10309B688000C358002B07D0064A13
:101A500000209B1A2F229A424041C0B270470020BA
:101A6000FCE7C04600ED00E08C040020024B103083
:101A70009B688000C058704700ED00E070B50D0015
:101A8000EFF3108672B60F4A1368002BFCD0BFF339
:101A90005F8F0D4B10309B6884001B590B4A93429B
:101AA00003D09D4201D001F081FA074B9B681D5184
:101AB000BFF35F8FBFF35F8F0022024B1A6086F384
:101AC000108870BD240100D000ED00E0CD010010B1
:101AD000F0B557464E46DE464546E0B585B00600B1
:101AE00002911700EFF3108B72B6674A1368002B50
:101AF000FCD0BFF35F8F0025644B5D579A46002DE5
:101B000000DAA5E06B00624C03935B199B009846DA
:101B1000A146C1444B4652469B79103613705D4B2B
:101B2000B2009B68019299580B1B2F2B34D95A4B4A
:101B3000994200D0A5E0039B584A9C46584B654407
:101B4000AD006353434602336519E418554B012138
:101B5000043B1B1B1B055B0D13436B80524BEF714A
:101B6000AB80FF23AB71029BAB604B460B4319006C
:101B7000484B019A9B689950BFF35F8FBFF35F8F0B
:101B80000022414B1A608BF3108805B0F0BCBB46B5
:101B9000B246A946A046F0BD01200A008243D3798F
:101BA000BB422FD845464E46130040491B1B5B41A4
:101BB0005943090D3A4B63533A4B02356519043BBF
:101BC0005B1B1B05354D5B0D2B4373800426B44610
:101BD000E0444444131F1B1B4C46A17102991B0592
:101BE000A16049465B0D2B43A380314BE771014354
:101BF0001360BDE75800C01880002018C679BE42A7
:101C00002CD902000623D356002BF3DA101D82468E
:101C1000BD200002804604267642B446E144504688
:101C20004E46361A3005400D824656461B48957181
:101C300006439680039A944665441D4AAD00641994
:101C400022604246A371029BA280E771A3608FE7E6
:101C500001F0ACF9002553465D5753E7101D82464D
:101C600090884005001584464046D44466460430BA
:101C70002018301AE0260005400D36023043804619
:101C8000C9E701F093F956E7240100D012C90220F8
:101C90008C04002000ED00E0CD01001000E0FFFF0B
:101CA00000A1FFFFBC04002000BDFFFFAAAA0000A6
:101CB00001488047F0B5DE4657464E464546E0B5FA
:101CC0000C0083B0EFF3108A72B65A4A1368002BE7
:101CD000FCD0BFF35F8F1022914681444A46564B99
:101CE00096009B689D59554B98469D4205D0A5424C
:101CF00016D0534FEB1B2F2B14D94F4B9B689D5184
:101D0000BFF35F8FBFF35F8F00224A4B1A608AF3E5
:101D1000108803B0F0BCBB46B246A946A046F0BD51
:101D20001D00EAE7012383409B465A46454B1B684A
:101D30001A4000925A46444B1A60BFF35F8FFEF779
:101D400092FA0190002803D0814501D001F02EF9CC
:101D500001232A009A4393689C4208D15FE04B001C
:101D60005B189B00FB189968A14211D01A0006214C
:101D700051560029F3DA009B002B05D05A46334B0D
:101D80001A60304B1A60B8E75A462F4B1A60B4E716
:101D900006215956002921DB4A00501880003C18C2
:101DA0008046A0689860E079D87106202056987126
:101DB000002824DBA488F81A64052415444400197B
:101DC000E0240005400D2402204398805218204B47
:101DD0009200BF181A781970BA71CCE701990029DE
:101DE00010D1FF3191711B49918019490A789A717C
:101DF000194ADB1B5B415A43120D0A70BBE7BD2039
:101E00000002E2E7154A1649D21A083A5002400D7C
:101E100001439980134952080A43DA80ABE706214F
:101E2000515613000029B7DA019A002AEAD1454633
:101E3000DBE7C046240100D000ED00E0CD0100103A
:101E40008C04002000E100E080E100E080E200E09E
:101E500012C9022000BDFFFFAAAA0000C60400208C
:101E600000F0FFFF00F8FFFFF8B50125040005436F
:101E7000FEF7F9F9EFF3108C72B6214A1368002BC4
:101E8000FCD0BFF35F8F1F4E2100B7681E4A1F4B67
:101E9000891A49414B431B0D59B28300F858A84297
:101EA0001CD00623D3568B421CD01223D3568B4210
:101EB00022D01E23D3568B4220D02A23D356032070
:101EC0008B4210D0124B1A781970A271BFF35F8F3A
:101ED00000220B4B1A608CF31088F8BDB2680D48D5
:101EE000D050EFE7002043001B189B00D218FF23BF
:101EF0009371094B9380E5E70120F4E70220F2E7B4
:101F0000240100D000ED00E08C040020AAAA00000B
:101F100012C90220CD01001000BDFFFF054B064A8B
:101F20001360064A136053609360D360136153617A
:101F3000936170478080808000E400E004E400E06A
:101F4000D02300B51B061B680100074883B0C018EA
:101F5000064B002200930523FFF792FA002801DBCD
:101F60001F23181A03B000BD04C80220E4A9011001
:101F7000024B9C4661448900016070474000003478
:101F800083680B4810B5844661446244090112011C
:101F90009A18591854684B6801209C4201D802D005
:101FA0000020C0B210BD12680B689A42F9D8F7E75A
:101FB000FFFFFF0F074810B50268EFF3108172B6FC
:101FC0001368002BFCD0BFF35F8F06F047FB0020A7
:101FD000002110BD98C70020F8B557464E4645462B
:101FE000DE46E0B599460CAB1C780DAB1B780600BD
:101FF00090469A460768002C11D1BC7B002C42D039
:1020000065003B682D19033D59194B78BB73002BB4
:1020100000D1FB7300238B704B700B7004E06500E4
:102020003B682D19033D5919B2682A4B9446424624
:10203000E3181B0163441A604A465A600A9A9A6080
:102040000B9ADA6000238B704B700B707B7B9B4686
:10205000002B2BD022005946B8687B6898473A6815
:10206000002816D05B4658465B005B445519033B7D
:10207000A870D118D35C002B00D06B705B460C703D
:102080007B73A34513D0F0BCBB46B246A946A0461D
:10209000F8BD5B465B005B44033BD3189C70511951
:1020A000525D002A00D05A705B460B707C7342462A
:1020B0004B46307D00F03AFC051E06D05346002BFF
:1020C00003D12100306800F053FE0E9B002BDAD0C4
:1020D0001D70D8E7FFFFFF0FF0B5DE464E465746AE
:1020E00045460023E0B58DB00A936B4B8200D35870
:1020F0000B90994600239B464B46079300F0B6FB96
:10210000079C06000F006268EFF3108572B6136833
:10211000002BFCD022000794BFF35F8F2468637B01
:102120009946002B67D092685C4B90464B441B014C
:10213000984443461A685B6810001900801BB94137
:1021400000295FDD0B9800F0F1FB00230026984684
:1021500000279A46079C6368BFF35F8F5A461A6050
:1021600085F310885346002B08D10028C6D10DB046
:10217000F0BCBB46B246A946A046F0BD0A9B41460C
:1021800018024B461843D047089009916268EFF354
:10219000108572B61368002BFCD00794BFF35F8FD5
:1021A0000899099A002A48DB114303D0079B1B6951
:1021B000002B5DD1079B1B68D97B002907D04A0003
:1021C000521819688C4649466244033A51704A468F
:1021D000DA734B46079A013BD168CA5C0132CA5494
:1021E0005B46079A13615368BFF35F8F5A461A60C4
:1021F00085F3108882E700230026984600279A4638
:102200000020A7E7002901D100289BD10021200050
:1022100000F030FD43461E685F689B68079A9A4647
:102220004346DB689846D3684B44013B1B780A93CE
:102230001B020343136100208CE72369002BB9D0F4
:1022400033003C005B1A94411A002300A74219D8BE
:102250009F421BD0594604910121039149460291A6
:1022600041460191514607980091FFF7B5FEB7E747
:1022700000F0FCFA089A099B06000F0092197B41B6
:102280009942E5D901225242D317E3E79642E1D9B8
:1022900001225242D317DDE7C0C30020FFFFFF0F2A
:1022A000F8B557464E464546DE46E0B5404D8146B8
:1022B0008A466A68EFF3108872B61368002BFCD068
:1022C000BFF35F8F2E68B47B002C39D06700336872
:1022D0003F19033FDB195A78B273002A00D1F27319
:1022E000A968344A8C464946A2181201624411601A
:1022F00051465160304991600021D1609970597008
:102300001970737B9B46002B35D022001900B068F2
:10231000736898473268002820D05B4658465B00B7
:102320005B44D719033BB870D118D35C002B00D0A5
:102330007B705B460C7073735C451DD0002626E0F5
:102340006B68BFF35F8F1C6088F3108801204042E8
:10235000F0BCBB46B246A946A046F8BD5B465B0052
:102360005B44033BD3189C70D119D25D002A00D086
:102370005A705B460B7074734A465346287D00F0D2
:10238000D5FA061EDAD02100286800F0F1FCEB68CF
:102390001B19013B19786B68BFF35F8F00221A602D
:1023A00088F310880020002ED2D108022043CFE706
:1023B000D4040020FFFFFF0FB51F001010B5124C12
:1023C0006368002B04D00A211048FFF7D1FD10BD2F
:1023D00023000F4A1021206800F06AFB032000F060
:1023E00039FA032000F012FB03200A4900F058FAE2
:1023F000FFF7C6F8084B9C46032360442375074B40
:1024000080006060DC60DEE7D404002098C7002014
:10241000811F0010D920001040000034C0C30020EC
:1024200000487047D4040020F0B557464E46454654
:10243000DE46E0B585B0019310AB1B780600039330
:1024400000239A46984600927268EFF3108972B69C
:102450001368002BFCD0BFF35F8F3568AC7B002C7A
:1024600049D067002B683F19033FDB195A78AA73DC
:10247000002A00D1EA73B1684F4A8C46009801994E
:10248000A21812016244106051600E9991600F9978
:10249000D16042469A705A701A706B7B9B46002B33
:1024A00045D022001900A8686B6898472A68002860
:1024B00030D05B4658465B005B44D719033BB8708D
:1024C000D118D35C002B00D07B705B460C706B7313
:1024D0005C452DD0F3681B19013B18787368BFF376
:1024E0005F8F42461A6089F310885346002B2CD127
:1024F0000002204307E07368BFF35F8F1C6089F31D
:1025000010880120404205B0F0BCBB46B246A94647
:10251000A046F0BD5B465B005B44033BD3189C7058
:10252000D119D25D002A00D05A705B460B706C73D3
:10253000307D009A019B00F0F9F982460028C9D04D
:102540002100306800F014FCC4E7039B002B30D05E
:102550000E9B00200F999847030004000D000B43C9
:1025600027D000290DDA0098019902000B00121BF8
:10257000AB41994213D818D000920193039B9A461D
:1025800062E700F073F902000B00A4185D410094AB
:102590000195A94203D8F1D100998A42EED90123CD
:1025A0005B42DC1700930194E8E700999142E3D97C
:1025B000F5E70020A7E7C046FFFFFF0FF8B5474645
:1025C000CE4604000D0080B596267642F7173619E0
:1025D0006F418F4214D811D000F048F932003B000F
:1025E000121A8B41002B15DC002B32D02900200061
:1025F00000F046F9C0BCB946B046F8BD8642EBD9FA
:102600000026002700F032F932003B00121A8B41FD
:10261000002BE9DD30003900FFF742FE0028E5DB42
:10262000B846B1460C4F0D4E736A984504D8B26A4D
:102630009145DBD99845D9D13A68EFF3108172B64C
:102640001368002BFCD0BFF35F8F380005F0D2FF7A
:10265000EAE7002ACAD0DDE798C70020004005401D
:1026600070B504000D0000F001F902000B0020001D
:102670002900801859418B4205D802D0FFF79EFFF0
:1026800070BD8242FAD901204042C117F6E7C04628
:1026900070B5060000F0EAF8FA2204000D000023ED
:1026A00030000021920002F08DFD001969418D4239
:1026B00005D802D0FFF782FF70BD8442FAD901200D
:1026C0004042C117F6E7C046F8B5CE46474680B54A
:1026D00006000C00FFF7E4FD00280CDC2D4B002069
:1026E000596A8C4203D89B6A0130B34245D3C0BCBF
:1026F000B946B046F8BD20BF274D6A68EFF3108792
:1027000072B61368002BFCD0BFF35F8F2B68C1B289
:102710009C465B7B8B4235D0FF2303405A00914699
:1027200062461268994490464A464244033A927877
:10273000002A1DD0EA68000A90464344013B1B78FA
:10274000C0B2834221D06B68BFF35F8F00221A6052
:1027500087F310880F4A0020536A9C42C7D8926AB8
:102760000130B242C3D2E01A421E9041C0B2BEE76D
:102770002B699842E7D12A61E5E7601A431E984128
:10278000C0B2B4E7FF230340D4E7604600F0F0FA9C
:10279000D9E7C04600400540D4040020F0B5D64635
:1027A0004F464646C0B5EFF305833F22134018005D
:1027B0001038EFF3108C72B6204D2A68002AFCD036
:1027C000BFF35F8F0122110081401D4C8846616379
:1027D0001C4917000E788A463100C1400F400A425A
:1027E00009D1BFF35F8F2F608CF31088E0BCBA462D
:1027F000B146A846F0BD14498200646A51588C4223
:102800000FD3124BD25843469E4353461E70BFF31C
:102810005F8F00232B608CF31088002AE6D090474E
:10282000E4E70B4A9B00904643441A681A60BFF3E2
:102830005F8F00232B608CF31088D7E7280100D02E
:10284000004005401BC90220B4C70020E41400204A
:10285000D03F054010B50100024A0348FEF7EEFDE7
:1028600010BDC04600AA01100AC90220034B596AD4
:102870000A00986A596A8A42FAD1704700400540B6
:10288000064A536A9942FCD807D1044B02E05A6ABF
:10289000914202D19A6A8242F9D3704700400540C2
:1028A00070B504000D00EFF3108672B61A4A136873
:1028B000002BFCD0BFF35F8F002D1BD02000FFF753
:1028C000D5F8164981420AD02000FFF7D7F8012138
:1028D0002000FFF79BF80123A340114A1360114B1E
:1028E000A400E550BFF35F8F00220B4B1A6086F304
:1028F000108870BD0B4BA200D5500122A2400A499E
:1029000020000B7893430B700449FFF7D3F90021A3
:102910002000FFF77BF8E5E7280100D09D27001095
:1029200038600540E41400201BC90220F0B54F4672
:10293000D6464646C0B507002F4C616A0D00A66A10
:10294000616AA942FAD18B4208D805D00120E0BCC7
:10295000BA46B146A846F0BDB242F7D9EFF3108AA5
:1029600072B6264801680029FCD0BFF35F8F0125AD
:10297000BD402349204C8846097889462943C9B27D
:102980008C46414660460870391D1E4889006563C3
:102990000A51B9000B50216A0020294219D0616AFE
:1029A0000800A66A616A8142FAD18B4219D801D126
:1029B000B24216D8CC451DD00F4B1F201D625D635F
:1029C00001230740BB40104A1E38136043464A4665
:1029D0001A70BFF35F8F0022084B1A608AF31088C9
:1029E000B5E70020BFF35F8F0022044B1A608AF323
:1029F0001088ACE70120ECE700400540280100D03A
:102A00001BC90220B4C7002080E200E0EFF3108C65
:102A100072B60A490B68002BFCD0BFF35F8F01230D
:102A20008340074A0748136202789A430270BFF353
:102A30005F8F00230B608CF310887047280100D053
:102A4000004005401BC9022070B5050014001600A7
:102A5000002915D00C00002A12D080686B689847B6
:102A6000296800280ED073009B196200033B1219DD
:102A7000CB18033A9C7088188A5C002A15D106701E
:102A8000200070BD63001B197200033B9219CB1824
:102A9000033A9E7088188A5C002A02D104703400C0
:102AA000EEE75A7004703400EAE75A700670E7E700
:102AB00030B583600023CCB24373013304734260AA
:102AC0008373C4730D000068012C06D9421C0133C6
:102AD000DBB2137003329C42F9D1FF2129404B0035
:102AE0005918002340180338437030BDF8B5CE465E
:102AF000474606000C0080B5002907D04D0003684A
:102B00006D18033D5A195778002F04D12000C0BC1E
:102B1000B946B046F8BD7900C9190339884643441F
:102B20005978894600215970517073683A00210024
:102B3000806898473368002814D042469A189470E9
:102B400059195B5D002B00D053700F702700494668
:102B50003000FFF7CBFF390002003000FFF774FFB1
:102B60000400D3E7424641465D19AF709A185B5C9A
:102B7000002B00D06B701470E9E7C046F0B55746E3
:102B80004546DE464E46E0B50D006B0001685B1918
:102B9000DF1E0400C85D83B00192CA1900284CD022
:102BA00043001B18033BCB185E78B446002E16D1A9
:102BB000019E002E3ED0E67B002E04D073009B19B0
:102BC000CB18033B5D70E57300282FD100235370B1
:102BD00003B0F0BCBB46B246A946A046F0BD7200A9
:102BE0006244033A89184A78904600224A70914616
:102BF0005A70010032002000FFF726FF434682464C
:102C0000002B07D05B0021684344033BCB185A7864
:102C1000002A16D1424651462000FFF715FF2168D1
:102C2000019BCA19002BC6D10028CFD043001B1826
:102C3000033BCB1800219970C8E7019B002BBAD148
:102C4000C4E750008018033809184878834648467E
:102C50004870587041462000FFF7F6FE59468046FE
:102C60002000FFF743FF414602002000FFF7ECFE83
:102C70008046CFE7F0B557464546DE464E46E0B5BE
:102C800083B00191457B04006B0000685B19DF1E77
:102C9000C15DC21900294ED04B005B18033BC3181D
:102CA0005E78B446002E18D1019E002E40D0E67BFF
:102CB000002E04D073009B19C318033B5D70E573AD
:102CC000002931D1002328005370617303B0F0BC98
:102CD000BB46B246A946A046F0BD72006244033A24
:102CE0008018427890460022427091465A70200027
:102CF0003200FFF7A9FE43468246002B07D05B0057
:102D000021684344033BCB185A78002A17D1424626
:102D100051462000FFF798FE019B01002068C21970
:102D2000002BC4D10029CDD04B005B18033BC31846
:102D300000209870C6E7019B002BB8D1C2E7500075
:102D400080180338091848788346484648705870F8
:102D500041462000FFF778FE594680462000FFF7E5
:102D6000C5FE414602002000FFF76EFE8046CEE71A
:102D700070B5040000292CD0437B8B422ED005680F
:102D800048004018033828188278002A21D05300C0
:102D90009B18033BEA5CEE188A4202D11BE0002A32
:102DA00008D053009B18033BEB185A788A42F6D19F
:102DB00042785A7000230122837043702000FFF78D
:102DC000DDFE617B02002000FFF73EFE6073012004
:102DD00000E0002070BD43783370EBE7012219005A
:102DE000FFF7CCFE60730120F4E7C04610B5040085
:102DF000FEF7C6FB01002000FFF7BAF801235B4293
:102E00006360BFF35F8F10BD10B50400FEF7B8FB21
:102E100001002000FFF7ACF801235B426360002350
:102E20002372BFF35F8F10BD10B504000120FEF7C1
:102E3000B3FB044B9C46604480002060BFF35F8F6F
:102E400010BDC046400000342C4B2D4A70B51A60AE
:102E50002C4A2D4B2D491A6014008B689C43FBD1E2
:102E60002B4D2C4EB54208D2013E761BB60808CD3C
:102E7000984723000134B342F9D100F09DF8264A67
:102E8000214B1A60214A9368DB43DB01DD09002BEB
:102E9000F9D14022214B224C224E9A675A671A6779
:102EA000DA66B44208D223682000002B20D00C340C
:102EB000FFF7AAFFB442F6D31B4E1C4CC022A168F8
:102EC000300002F0A3FAA660FEF74CFBFFF726F8ED
:102ED000FFF774FA164C174EB44208D2013E361B67
:102EE000B60808CC98472B0001359E42F9D170BD39
:102EF0000834FFF77BFFB442D5D3DDE700E00040A4
:102F0000BFCDFBFEFE7F3C0000F0004000C0004053
:102F1000C00D0020D00D0020FFFFFF0100F0014098
:102F2000B00D0020C00D00200000002000ED00E0EA
:102F3000D00D0020DC0D0020094A03001068002895
:102F400005D00849C3188B4207D81360704706485C
:102F50000449C31810608B42F7D901204042F5E7BD
:102F6000FC250020000004201CC9022000BEFDE753
:102F70000FB400B5084883B002F0AEFB049B002BF1
:102F800007D005A91800019101F01CFD034802F0CB
:102F9000A3FB00BEFDE7C04624AA0110C4A801108F
:102FA00010B50148FFF7E4FF34AA011010B501483D
:102FB000FFF7DEFF44AA011030B50C2083B000F00B
:102FC000B7F9FEF7C7FA00280ED0944B944A1A605E
:102FD0005A609A60DA601A615A619A61DA611A621B
:102FE000904A5A6203B030BD8F4CA06700F0F4F9EC
:102FF00001228E4B1A60636C012BFCD103228C4B97
:103000001A60894A936B012BFCD101330121894A53
:1030100089480093043300F033F90523874A00936D
:103020000121874800F02CF9864B5A68FF2A02D804
:10303000802252005A608022784C7D4B2169120117
:10304000804D1A60002905D0606901F03BFD013018
:103050000138FDD1E0217B4B02201A68114080220B
:1030600052012A4311601968484003210140116050
:1030700004219A681142FCD08022802192012A43C7
:1030800009011160802252005A606F4B23616F4B1F
:103090005968FF2900D85A600321644A6B4B1160BC
:1030A00002399A681142FCD0E0201A681040802250
:1030B00052011A4310601868484003210140022061
:1030C000116062498A681042FCD080229201134349
:1030D000802212011A6080225D4B52004A606361B7
:1030E0005C4B5968FF2900D85A6080225A4BE1692D
:1030F0001201584D1A60002905D0606901F0E2FC08
:1031000001300138FDD1E02252490B681A4080237A
:103110005B012B431A60802380229B012B43120109
:103120001A6080223E4B52004A60E3614B4B596863
:10313000FF2900D85A608022494B216A1201474D6D
:103140001A60002905D0606901F0BCFC013001382B
:10315000FDD1E02241490B681A4080235B012B43DB
:103160001A60802380229B012B4312011A60802366
:1031700080225B004B602A4BD2022362394B596894
:10318000914200D25A608022374B616A1201354D5C
:103190001A60002905D0606901F094FC0130013803
:1031A000FDD1E0222F490B681A4080235B012B439D
:1031B0001A60802380229B012B4312011A60802316
:1031C000DB024B60174B6362284B5A68FF2A02D818
:1031D000802252005A608022254BA1691201234DA2
:1031E0001A60002905D0606901F06CFC01300138DB
:1031F000FDD1E0221D490B681A4080235B012B435F
:103200001A60802380229B012B4312011A608023C5
:103210005B004B600E4BA361E4E6C0460017002044
:10322000006CDC021BB70000008000403CB0004096
:1032300030B00040002F685900800240008C864763
:1032400000C0024030800040001BB7003C800040BE
:10325000405973075480004054B0004060800040E3
:1032600060B000406C8000406CB00040488000407E
:1032700048B00040014B8000C05870470017002044
:10328000F0B5C646040000B50C2090461F000E00A5
:1032900001F018FC4101091A8D01691AC9000918C9
:1032A0008901404601F00EFC069B3F041A03236887
:1032B0001743002B22DB1A4B1A4DE21853425A4196
:1032C00080235B019C461203174B62441A60174B24
:1032D0001A601100AB689943FBD1C022231D9201F3
:1032E0001A4321232660A06013602368002BFCDAB8
:1032F0000823E760136080BCB846F0BD3F23226816
:103300001340B342D7D1A3681B051B0D8342D2D112
:10331000EE22E368D2021340BB42CCD1EBE7C046B9
:103320000040FDBF00C0004000E0004000F0004051
:103330008023024A9B000343D3627047008005400C
:1033400010B5140080221B4BD2051A6000281AD039
:103350000123194A1843194BDA61194A42401A628B
:10336000596298628022134BD2051A601549164A99
:103370001160E022D2041A60002C07D18022134B86
:1033800012061A6010BD0D4BD861EBE763011B1BE1
:103390009A008023121912015B049A4200D30C4A4E
:1033A0000C4B1A60054B5A608022084BD2051A60FC
:1033B000E8E7C04600B00540D3C007B00080054034
:1033C0002D3FF84FFCFF01000820014000A0054000
:1033D000FFFFFF00302A0020AA23064A1B011360CA
:1033E0002F230549D360054B19605368002BFCDA85
:1033F0007047C0460040024000B0FA000060024042
:103400009A4200D2885470477047C046F8B5574674
:103410004E464546DE46E0B599460A9B07009A4669
:103420000D9B8846934615000B9E9B0710D10C9B65
:103430009E420DD29D1B14000E005D4422004B469F
:10344000013431002020B847A542F7D1B0460B9E89
:10345000002E27D0444675195346AA1B013E985D9D
:1034600021004B46B847002EF6D123002C00984689
:103470000D9B9B070FD55B46E51A0C9BAB420AD907
:103480004646984622004B46310020200135B84779
:103490000134A845F6D82000F0BCBB46B246A94688
:1034A000A046F8BD2C00E3E7F0B54F464646D646A9
:1034B000C0B584B098460EAB1B78129F99469446CF
:1034C0000D9C109B119EBA0725D4002E4BD19C4217
:1034D00000D3BFE001223A4092461F2C00D9B8E049
:1034E0000C9A551E302201E0202C03D001342A55BD
:1034F000A342F9D85246002A0DD0A6420BD9202C5F
:1035000044D00C9A551E302201E0202C3ED00134CC
:103510002A55B442F9D1FA064DD57A053FD4002C8C
:1035200039D10F9B102B00D179E00F9B022B00D1DA
:103530008AE030230C9A012413704B46002B3FD0B5
:103540002D230C9A135501340C9B6246009303976C
:10355000434602960194FFF759FF04B0E0BCBA4617
:10356000B146A846F0BD012215003D40AA463A42A8
:103570002FD04A46002A02D10C323A4200D0013EF6
:103580009C42BAD21F2CABD9202E27D92024FA0670
:10359000DAD57A0503D4A3422DD0A6422BD00F9BB7
:1035A000102B32D0022B20D0202CCDD030220C9BDF
:1035B0001B191A700134202CC6D04B46002BBFD1EA
:1035C0007B070DD43B07BFD520230C9A135501343C
:1035D000BAE79C429FD21F2C00D881E720249AE7AB
:1035E0002B230C9A13550134AEE7202CACD00C9B46
:1035F0001B1901343AE0631E012C92D00F9A102A55
:103600002AD0022A2FD01C00D0E7BB060ED4202CD3
:103610009AD00C9B1A19013478231370C4E7BB06A7
:103620000DD478230C9A01241370BFE7202C00D10D
:103630008AE758220C9B1B191A700134B4E75823EF
:103640000C9A01241370B1E70C9A603301241370B3
:10365000ACE7202400265EE7023CBA06E9D40C9AC7
:1036600012191C00D8E70C9A9246534462221A7031
:103670009AE7C04610B5002800D110BD01F0DCFF6C
:10368000FBE7C0460B0010B5002802D049681B6854
:10369000984710BDF0B5DE4657464E464546E0B564
:1036A0009BB09B46249B89469846259B0B900C9289
:1036B0004046424619009A4601F0C5FC002800D059
:1036C000D8E0012240465146774B524201F0B6FC09
:1036D000002800D0CEE0012240465146734B5242B2
:1036E00001F096FC002800D0C4E0002200234046F0
:1036F000514601F08DFC002800D0B9E14246534606
:103700000A9209938023289ADB001A400E92289A85
:103710001A4201D1062326930A9A099B16001343E5
:1037200000D0C7E0289B002500261B0500D49BE1A4
:1037300000230D93269A0D9B9A4200DC9FE1D01A3C
:10374000431E26938023289ADB001A430023002778
:1037500028920D93279B0024BB4200D9DC1B022337
:10376000289A1A400E92289A134203D07B427B413A
:103770005B421C400D9B002B07D00A9809992A0038
:10378000330001F0ECFB0A9009910022002340462F
:10379000514601F03DFC002805D0802000068446FB
:1037A000099961440991289A414B0B9D1340049358
:1037B000269B0A9A0293099B03940092019349461F
:1037C0005B4628000C9A00F08BF90400002F62D0B1
:1037D000289B220098061F23C0179843631C984615
:1037E00049465B466530A8470D9B0025DA179C18B3
:1037F000DB0F9A465440013F01E0202D13D00AAA66
:1038000094461F23200063440A2101355E1901F00C
:1038100059F93031317020000A2101F053F92600A6
:103820000400092EE9D805230693002304930A33E4
:103830000393534605970B9F029312AB00934246A6
:103840005B46494638000195FFF72EFE0E9B0400AB
:10385000002B20D00C9BC51A279BAB421BD91E0006
:1038600022005B46494620200135B8470134AE426C
:10387000F6D810E0289B42460493279B49460393C1
:10388000269B0B9802935346009201935B460C9A39
:1038900000F026F9040020001BB0F0BCBB46B24685
:1038A000A946A046F0BDC046FFFFEF7FFFFFEFFF38
:1038B000FFF7FFFF734B099F9C467800400D604463
:1038C00001F0D4FB704A714B01F063FB704A714BFD
:1038D00001F040FB3B03704A1B0B1A4304000D0030
:1038E000300011006D4B002201F02FFB6C4A6D4B34
:1038F00001F04FFB02000B002000290001F02AFB21
:1039000001F0CCFB0D9001F0B1FB674A674B04005E
:103910000D0001F03EFB0022654B01F01BFB01F0A6
:10392000BDFB644A0600644B2000290001F031FB16
:10393000040030000D000F9601F098FB5F4A604BC9
:1039400001F027FB02000B002000290001F0FDFA26
:1039500002000B0006000F0001F01BFB3200040008
:103960000D003B003000390001F0F4FA0022109005
:103970001191544B2000290001F0F1FA0022524B22
:1039800001F0E8FA02000B002000290001F0E7FA3C
:1039900000224E4B01F0DEFA02000B00200029004D
:1039A00001F0DDFA0D008021040032003B00002010
:1039B000C90501F0CAFA02000B002000290001F03D
:1039C000C9FA02000B001098119901F0C8FA002200
:1039D000314B01F0BFFA3E4B0F9C9C4664440022E1
:1039E000230501F0D6FA05000E0002000B000A982C
:1039F000099901F00DFB00280AD00D9B2800013B1E
:103A000031000D930022304B01F0A9FA05000E00A1
:103A1000C6270D992B0063318F42BF4128997F4201
:103A20000437090500D495E6334300D182E6099CAA
:103A3000284A2100284B0A9801F0F8FA002808D0FB
:103A400000222100254B0A9801F0E2FA002800D05C
:103A500070E6269B002B00D17CE60E9B5A1E9341FC
:103A6000269AD31A269375E6002304270D9371E650
:103A700043460A9380231B065344099342E60023DE
:103A800026935FE601FCFFFFFB799F501344D33F71
:103A9000B3C8608B288AC63F0000F03F0000F83FA3
:103AA00061436F63A787D23F71A379094F930A409F
:103AB0000000E03F1655B5BBB16B0240EF39FAFE8E
:103AC000422EE63F00002C40000024400000184039
:103AD000FF0300002D431CEBE2361A3F80842E4189
:103AE000F0B54E46DE4657464546E0B597B0994696
:103AF000209E219F229B8346984607910C923B0073
:103B000032003000390001F09EFA002800D0A9E10F
:103B1000012230003900CA4B524201F079FA0028E4
:103B200000D0E1E0012230003900C64B524201F0E2
:103B300085FA002800D0B7E0002230003900C24BDF
:103B400001F07CFA002800D099E000223000390012
:103B5000BE4B01F05DFA002800D090E00022002367
:103B60003000390001F054FA002800D0B1E0002301
:103B70000D93249B5B0501D40623984608AB9C4615
:103B80001722002430234146624404E001341355D7
:103B90000139202C01D00929F8D888463000390095
:103BA00001F07CFA4346DA00A94B05009B181A681D
:103BB0005B680892099301F059FA02000B0030008B
:103BC000390001F0C2F9089A099B01F0E2F90A9064
:103BD0000B9101F087FA824601F044FA02000B00D3
:103BE0000A980B9901F0B1F900229A4B0A900B91B7
:103BF00001F024FA002800D1C0E001239C46E244F1
:103C0000504601F02FFA02000B000898099901F0C4
:103C100005FA002802D000239A4601354346002BBE
:103C20006AD008AB17269C4608956644554614E0B2
:103C300001235B4243440A2128009A4600F042FFD8
:103C4000013430313719397028000A2100F03AFF69
:103C5000092D00D8D0E0D0460500202CE8D10EABCD
:103C600098460323249A1340012B00D196E0202389
:103C7000249A01930392239A434602921EE0249BC6
:103C800058460493239B00960197039343460C9A4E
:103C9000029307994B46FFF7FDFC17B0F0BCBB46FB
:103CA000B246A946A046F0BD249B5B070ED4032272
:103CB000694B2499019203912399029100935846EC
:103CC0004B460C9A0799FFF7A1FBE6E70422634BEA
:103CD000EFE73B0032000020002101F036F901231C
:103CE00006000F000D9344E7249B0393239B02934C
:103CF000042301935A4BE1E7280001F0B7F90200D1
:103D00000B003000390001F020F9524B0022060070
:103D10000F0001F07DF90EAB984600280AD1002271
:103D2000300039004B4B01F089F9002802D1EB0734
:103D300000D50135202C94D008AA944617232800DA
:103D400063440A2101341E1900F094FE303128002A
:103D500031700A2100F08EFE051EEBD10323249A58
:103D60001340012B1BD0202C00D180E70D9B002B92
:103D700035D02D224146631C0A5579E700220A9866
:103D80000B99344B01F044F9002800D046E7534624
:103D9000002B51D101239C46E2443FE72024239B82
:103DA000002BE0D00D9B002B03D1249A0C3313423F
:103DB00002D0239B013B2393239BA342D3D908AB7F
:103DC0009C46172230236244202C00D14FE72399D0
:103DD000013413558C42C6D0202CF8D147E7249BE0
:103DE0005B0724D4249A2300120700D440E7202242
:103DF000414601330A553BE75746089D202C00D128
:103E00002DE7220030214046002F09D00132B15465
:103E1000202A00D123E7D3431B191B18002BF5D10F
:103E20000EAB98462E234146541C8B5482E72B221E
:103E30004146631C0A551BE7DB0700D4EEE6A9E701
:103E4000FFFFEFFFFFFFEF7F65CDCD4165CDCDC11A
:103E500048AC01100000E03F50AA011054AA011024
:103E600060AA0110249B0393239B029303230193D5
:103E7000004B23E75CAA0110F0B5DE464E465746DC
:103E80004546E0B59FB01C00289B91460993C94A5E
:103E9000C94B8B4608901A60002900D118E2002314
:103EA00020789A46002800D11AE226001D005C46C0
:103EB0000AE02A006F1C4B46089D2100A8473D00E0
:103EC00001363078002870D02528F2D110239B4687
:103ED000083B9A46043B9846023B00219C46721CD4
:103EE000107816000300203BDBB2102B03D8B34F31
:103EF0009B00FB589F460300303B092B32D900231F
:103F00000A932A2868D0002398462E283ED0030022
:103F1000683BDBB2122B1CD8A94A9B00D3589F46A2
:103F2000012301321943DBE7634601321943D7E726
:103F3000434601321943D3E75B4601321943CFE7C9
:103F4000534601321943CBE780235B007078194355
:103F500001360300253BDBB2532BAAD8994A9B00BC
:103F6000D3589F4600270300B800C019013640000F
:103F7000C018337830381A00303A0700092AF3D9CC
:103F80000A901800002398462E28C0D1802370780C
:103F9000DB0019430300303B721C092B00D8A1E160
:103FA0002A2800D1B2E11600B1E7A346AA462C00A8
:103FB000D14503D801235B424B449A464B465246B7
:103FC00059460020089DA84720001FB0F0BCBB4602
:103FD000B246A946A046F0BD099B40CB0A96002EEA
:103FE00003DB50780993561C8DE728380143704253
:103FF0000A9009935078561C85E7782800D1DFE1B4
:10400000582800D14CE26F2800D14FE3622801D13B
:1040100000F030FC10230A009A430B92692801D06B
:1040200000F0A9FC0A230C934B0500D5D0E10B9AB4
:10403000802311009B0019408B461A4200D0A1E258
:10404000802311005B0019408A461A4200D0B6E373
:1040500013005B0600D5EDE2130009991B0601D49D
:1040600000F076FC08C91BB2D8171A18424092B269
:1040700009919346DA0F1292002B09D18023102266
:104080000B99DB000B4091430B91002B00D0E4E235
:104090000B9A6123920600D541230EA91F228C465C
:1040A000DBB262440A3B5F461395A34655460C9C1F
:1040B000B2460D9316000AE03033DBB2013573557A
:1040C000A74200D2EDE2202D00D1EAE20700210054
:1040D000380000F0F7FCCBB20929EDD90D9A9446CF
:1040E0006344DBB2EAE780239B0070781943013612
:1040F0002FE77078682800D1CDE18023013619437D
:1041000027E770786C2800D1BFE180235B0019435A
:1041100001361EE7462800D19BE10722099B049146
:10412000073393430A9A19000392424602920CC93C
:1041300008980092019309912A004B462100FFF74D
:10414000CFFC01360500BCE62A006F1C4B46089DDB
:1041500021002520A84701363D00B2E68B0700D498
:10416000ADE1099B2A009A466B1C9846534601CB49
:1041700021009A46089F4B46C0B2B8470A9B9C460E
:104180006544012B00D886E2089B4746B0462600CE
:104190004C4699463A002300013731002020C84799
:1041A000AF42F7D1A1465346340046460993013643
:1041B00087E6C046793E0010282A002068AA011030
:1041C000ACAA0110F8AA0110099B04CB9B464346F8
:1041D0000992002B00D1C6E013789C46002B00D139
:1041E000BDE34346013B099A0133D0180A9F1300EF
:1041F00001E0834203D05A780133002AF9D1099AA9
:104200000A979B1A0B9380230A00DB001A400C923A
:10421000194204D00B9B434501D943460B9302231B
:104220001A000A400D920B4200D187E16046002837
:1042300000D168E10C9B002B00D10DE1A844C246DF
:10424000099B57465B1B9846089BB2462A002600EE
:104250004C46994609E023003100551CC8474346A7
:10426000585D002800D126E12A009742F3D1A146EB
:104270003D00340056460D9B002B00D043E15B46C9
:10428000013609931DE6099B1A0008CA9246002BC5
:1042900048D0212211438B460EA884461F21614439
:1042A000099500220F27A4460D0002E0202A0CD019
:1042B0000B003C001C4020003730092C00D8073888
:1042C0000132A85419090F2BF0D86446099D32E039
:1042D000DC4B2078089300239A46002800D0E4E5C0
:1042E000002465E6434606000A9F9800C018013284
:1042F000400080191678030030003038303B092820
:10430000F3D93000984616000A9700E6099B02365A
:1043100004CB9046D2434046D217104080460993C2
:104320003078F4E5102208009043113210438346A0
:1043300000224905B0D55B46069308230593434602
:104340000493102303930023029316AB019200936E
:104350002A004B4621000898FFF7A6F853460500AF
:1043600001360993ADE513789C46002B00D1F7E2A6
:1043700002235B4237E7202302009A43472A04D1F5
:1043800080231B01194302239843452801D1202390
:1043900019430722099B0491073393430A9A190092
:1043A0000392424602920CC9089800920193099127
:1043B0002A004B462100FFF76DF90136050080E524
:1043C00010230C930C230A009A430B924B0503D540
:1043D00001230B9A9A430B92692800D127E664289F
:1043E00000D124E60B9A802311009B0019408B46D4
:1043F0001A4200D066E1802311005B0019408A4612
:104400001A4200D039E213005B0600D53CE11300EC
:104410001B0600D4A6E2099B04CB1204120C93469F
:1044200009935B46002B00D09AE10B9A10331100E0
:1044300099430B91520500D492E100239A460B9BBD
:1044400006930A9B0593434604930C9B0393002316
:104450000CE12023194360E6099B0A9A5B1B9846EE
:104460004B4691461F00B2462600089C2A003B009E
:104470003100A04743460135585D0028F6D14A4631
:104480003400B94656460A92F5E6C0239B00B07840
:10449000194302365DE5C023B0781943023658E56A
:1044A0000C230A009A4314331A43103B0B920C93CB
:1044B0004B058DD496E7A14634005646DBE60A9AB2
:1044C000012A00D853E26B1E9F18089BB0462600B5
:1044D0004C4699462A002300013531002020C84768
:1044E000BD42F7D1A14634004646099B3A0001CBB4
:1044F000210098467D1C4B46089FC0B2B8474346F2
:1045000001360993DDE40B9B0A9AA8469A4200D82B
:10451000B5E694466544ED1A089B4746B04626002A
:104520004C4699463A002300013731002020C84705
:10453000AF42F7D1A14634004646A0E60B9A0A994D
:10454000531C914200D814E24B199B1A1F00089B80
:10455000B24626004C4699462A0023000135310018
:104560002020C847BD42F7D10A9BA14601330B93D7
:10457000099B34001B7856469C466046002800D0B4
:1045800058E67CE60722099B0733934301329446A1
:104590009C4462465F6809921A68FB171093119356
:1045A00010981199030053400E930B007B400F931A
:1045B00094460E9A0F9B121A8B410E920F93FB0F8B
:1045C0006246129300233A439B463DD00B9A6123E7
:1045D000920600D541230022DBB20EA90A3B8C468D
:1045E00092460D9343461F326244139515965546E5
:1045F0000E9E0F9FA24690460C9C14930CE0303206
:10460000D2B2434601355A55BB4500D18AE1202D2F
:1046100000D18AE106000F0022000023300039009B
:1046200000F092FAD2B2092AE9D90D9B9C46624465
:10463000D2B2E6E7FF23099904C913401A00099191
:1046400017E5C046093400100B9A10331100994346
:104650000B915205BAD500239A460B9B06930A9BF1
:104660000593434604930C9B0393129B029353467A
:10467000019316AB2A00009321004B460898FEF7E1
:1046800013FF013605001CE4FF22099B02CB1140F9
:104690008B460993C5E65346454609930136FFF715
:1046A00010FC56465C46AA46139DD6E708230C9399
:1046B0000B910B99642800D084E60B9B5B0500D519
:1046C00086E6B4E40722099B0733934301329446FC
:1046D0009C44624609921A685B6810009B4613006E
:1046E0005A46134307D10B9A1033110099430B918B
:1046F000520500D5A1E60B9A6123920600D541230D
:104700000022DBB20EA90A3B8C4692460D9343462B
:104710001F3262445F461295A34655460400B246D6
:1047200090460C9E13930DE03032D2B243460135D1
:104730005A550023BB4200D100E1202D00D100E1F9
:1047400004000F00320000232000390000F0FCF9C3
:10475000D2B2092AE8D90D9B9C466244D2B2E5E761
:104760000B9A6123920600D54123DBB20EA90A3BC6
:104770001F228C460D93230062445C46129517005D
:1047800055469B46B2460C9E08E03033DBB20135FD
:104790007B55B4420ED3202D0CD0040031002000F4
:1047A00000F090F9CBB20929EFD90D9A94466344F1
:1047B000DBB2ECE756465C46AA46129D3FE6099BF3
:1047C0001A0008CAD91713925A184A409246DA0FAB
:1047D0001292002B08D1802310220B99DB000B4092
:1047E00091430B91002B2BD10B9A6123920600D59C
:1047F00041230EAA1F279446DBB20A3B0D9567445E
:104800005D460993A3465446B2460C9E08E03033F9
:10481000DBB201357B55B4420ED3202D0CD0040001
:104820003100200000F04EF9CBB20929EFD9099AE6
:1048300094466344DBB2ECE756465C46AB460D9DBE
:104840000B9B2A0006930A9B210005934346049381
:104850000C9B08980393129B013602935B460193CD
:1048600016AB00934B46FEF71FFE139B0500099302
:10487000FFF727FB02230C931AE7099B04CB924610
:104880001293002A08D1802310220B99DB000B40E1
:1048900091430B91002B2BD10B9A6123920600D5EB
:1048A00041230EAA1F279446DBB20A3B0D956744AD
:1048B0005D460993A3465446B2460C9E08E0303349
:1048C000DBB201357B55B4420ED3202D0CD0040051
:1048D0003100200000F0F6F8CBB20929EFD9099A8F
:1048E00094466344DBB2ECE756465C46AB460D9D0E
:1048F0000B9B2A0006930A9B2100059343460493D1
:104900000C9B08980393002302935B46019316AB1C
:1049100000934B46FEF7C8FD129B05000993013634
:10492000FFF7CFFAB44200D871E6149B54460E96B6
:104930000F97AA469846159E139D8EE6A64200D86C
:10494000FBE6139B56469846AA465C46129D76E5C2
:1049500008C9D8171A1842400991FFF78AFB0023AB
:104960000B9350E4099B04CB9346099359E52F0020
:10497000BBE50B9301E6063B0C939AE60CB410B52D
:1049800084B006AC08CC0A000094010004480394EB
:10499000FFF772FA04B010BC08BC02B01847C0465A
:1049A0000134001000B585B00391012102900093FD
:1049B000034813004A4202A9FFF75EFA05B000BDA2
:1049C0008536001010B5094A0300146884B0002C25
:1049D00008D0012200910648524203A9A0470120B5
:1049E00004B010BD00F078FE0020F9E7282A00206E
:1049F0007536001001480421014B184700050020BE
:104A0000314A0010014B9B68184700000005002048
:104A1000142310B50100188804331B88984710BD73
:104A2000162310B50100188802331B88984710BD63
:104A3000F8B54746CE4680B50F1E19D014239946C7
:104A4000043304000025012698464B461888434647
:104A500021681B88984701C4431E98410135404294
:104A60000640AF42F1D13000C0BCB946B046F8BDF7
:104A70000126F8E7124A936F9B0815D29066D1661B
:104A8000002905D0FFE7FFE7FFE7516F106F704780
:104A900004B580210906C2175140002800D0C84340
:104AA00015F016FE002104BDF0B5146E556E576F5B
:104AB000166FFFF7E3FF1466556657671667F0BD7C
:104AC000000000D0114A936F9B0813D21066516604
:104AD000002905D0FFE7FFE7FFE7516F106F704730
:104AE00004B5002801D00020C04315F0F1FD0021DD
:104AF00004BDC046F0B5146E556E576F166FFFF7C4
:104B0000E5FF1466556657671667F0BD000000D0D4
:104B100094464E4A926F9208624601D230E0C046F7
:104B2000F0B54A4EB56F6D08FCD3346E756E776F75
:104B3000366F00F025F89446444A14665566576768
:104B400016676246F0BDC0469446404A926F92088E
:104B5000624601D258E0C046F0B53C4EB56F6D08D4
:104B6000FCD3346E756E776F366F00F04DF8944657
:104B7000364A14665566576716676246F0BDC046EA
:104B8000002B24DB11D000293EDA00B5C943404296
:104B900000D1013100F038F8C943404200D1013161
:104BA000DB43524200D1013300BD002AEBD1002883
:104BB00001D1002905D00020C90FC90701D1C04388
:104BC000410800B515F074FD0022002300BD00B5BA
:104BD00000290ADBDB43524200D1013300F014F814
:104BE000C943404200D1013100BDC943404200D118
:104BF0000131DB43524200D1013300F005F8DB43C1
:104C0000524200D1013300BD002923D1002B18D11D
:104C1000002A0CD0BC460D4F38667A66002100236E
:104C2000FFE7FFE7FFE77A6F386F674670470028B6
:104C300001D00748010000B515F03AFD002200231D
:104C400000BD02000B00002000217047000000D0D2
:104C5000FFFFFFFF002B00D0BFE0130C28D1002A7C
:104C6000E7D080B4114F39667A66FFE7FFE730B4CA
:104C7000040C7B6F396F1B0423433B667A66FFE7A6
:104C8000FFE7FFE7C04684B27B6F3D6F1B04234301
:104C90003B667A66FFE7FFE7C04600232C042D0C35
:104CA0007A6F386F00196941B0BC7047000000D0BE
:104CB000F0B594460025140E01D112020835140FE8
:104CC00001D112010435940F01D192000235D40FA5
:104CD00001D152000135D40B0134254F7C66254C9F
:104CE0003C660E0C93B2FFE7FFE7FFE73C6F6643BD
:104CF000360C7703BE467343DF0B5B04C01AB94121
:104D0000130C7343DB18C91ACE086643360CB6443D
:104D100093B273431F0F1B01C01AB941130C7343A5
:104D20001F0B1B05C01AB941860D8F023E43664317
:104D3000360C092D24DB520A7243801A7703460A87
:104D40006643360C16235B1BDE40DF40BF1964460A
:104D50006643821B7046043506330100D940A840E3
:104D6000C01900D30131A24206D20023F0BD0000D9
:104D7000000000D0FFFFFFFF121B0130F3D3F1E76B
:104D800009277F1BFE406446A2B27243801A00D2FC
:104D90000139220C7243130C1204821A99410B0040
:104DA0007046043513370100F940A840801900D33C
:104DB0000131002B02D1A2420AD2F0BD013000D352
:104DC0000131121BFAD2013BF8D1A24200D2F0BD50
:104DD000013000D30131121BF7E7F0B51C0C00D0F5
:104DE00080E00CB400251C0A04D11B02160E3343CC
:104DF000120208351C0B04D11B01160F334312019C
:104E000004359C0B04D19B00960F3343920002356E
:104E1000DC0B02D192185B4101351C0097186441EC
:104E20000134464F7C66464C3C660E0CFFE7FFE7BC
:104E3000FFE7C0463C6F6643360C7703BE4697B229
:104E40007743C01B00D20139C01B00D201399FB289
:104E50007743C91BC91B170C77437E04FF0B801BCC
:104E6000B941CE086643360C0C2D33DBB644120B29
:104E70001F053A431B0B97B27743C01B00D2013981
:104E80009FB27743C91B170C77433E043F0C801B2E
:104E9000B941860D8F023E43664329277F1BFE40A2
:104EA0000C3D7746AF40BF1930BCA2B2ABB27243E3
:104EB0007343801A9941220C7243130C1204801A16
:104EC000994102000B000137001BA941F9D2781E5D
:104ED0000021F0BD0C277F1BFE4077467F0BAF40C3
:104EE000FF19E0E700245D1C07D0144F7D6639668A
:104EF000FFE7FFE7FFE7FFE73C6F95B29EB2654330
:104F00006643401BB141150C1E0C654366433604D5
:104F10002F0C3E432D04401BB141994204D20200A4
:104F20000B0020000021F0BD01D19042F7D3801A80
:104F3000994101349942F2D3F6E70000000000D015
:104F4000FFFFFFFF48404140484018B4134B5B68E7
:104F5000019308BD18B4114B1B68019308BD94461A
:104F60000F4A926F920805D2624618B40B4BDB6869
:104F7000019308BD0A4AF0B5146E556E576F166F4F
:104F80006246FFF7F2FF064A1466556657671667D2
:104F9000F0BD18B4014B9B68019308BDF00E0020D2
:104FA000000000D0FFB550404240504059404B40B7
:104FB000594000E0FFB5154F4C00640D03D0BC42D2
:104FC00004D10C0314D80020090D09055C00640D00
:104FD00003D0BC4204D11C030AD800221B0D1B05C0
:104FE00001264B4009D44B4003D58B4200D182426D
:104FF000FFBD9942FCD19042FFBD0B43DB18034338
:105000001343F5D0C9434918FFBD0000FF07000056
:1050100000B5FFF7CFFF804100BDC04600B5FFF7E8
:10502000C9FF01D9002000BD012000BD00B5FFF778
:10503000B9FF01D9002000BD012000BD00B5FFF778
:10504000B1FF804100BD012040054A00121804D87C
:105050005A00121801D80020704701207047002024
:10506000704700000021002805D17047C117484053
:10507000401AFAD0C90713B5064B1B6898470CBCF9
:10508000441CA2401005120B0349091B09051943D2
:10509000114310BD94C600201F04000010B54C0041
:1050A000620D8023D218DB00D21A5B057E2A10DD48
:1050B0009E3A13DACC170903490819435242D140EA
:1050C000640001341532202A05DAD04008436043D9
:1050D00010BD002010BD0846604310BDC80FC018A9
:1050E000013810BD18B4024B5B6A019308BD000083
:1050F000F00E002010B50148FDF73AFF98AC011002
:10510000132370B51D78012D11D035DD1C48FFF734
:1051100087FC1C4C01008022200000F077F9022D52
:1051200027D01948FFF774FC184B186070BD184B56
:10513000144C23606360A360E36023616361A36137
:10514000E36123626362A362E36223636363A36335
:10515000E36323646364A364E36423656365A36515
:10516000E36523666366A366E36623676367A367F5
:10517000E367084BA364D4E7024C064BA364D0E773
:1051800053440000F00E00204C33000094C6002071
:10519000F55000109951001007B5604601880A0AC1
:1051A0000230DF2AFAD1C9B2820804D302884088CB
:1051B0000004104300E00068014A5050039007BD0E
:1051C000F00E002051434343C9188C46110C83B2A2
:1051D0004B4310B4040C614392B280B2504362431B
:1051E0001C041B0C001910BC59411304120CC018EC
:1051F00051416144704700004840414048400E4BD7
:105200005B6818470C4B1B6818470C4A936F9B0848
:1052100002D2094BDB681847F0B5146E556E576F14
:10522000166FFFF7F6FF054A14665566576716674F
:10523000F0BD014B9B68184798C60020000000D0C5
:1052400007B548404140484001E0C04607B542002C
:10525000120E03D0FF2A03D1420218D8C00DC00598
:105260004A00120E03D0FF2A03D14A020FD8C90DFB
:10527000C9050122414005D4414001D5814207BD05
:10528000884207BD0143491801D0C043001807BD3B
:1052900000B5FFF7D5FF804100BD0000C10FC90771
:1052A00000D54042002817D0F44603B40B4B1B68CE
:1052B000984706BC81409E384042803107D20B0699
:1052C00007D04900490AC005104308436047013030
:1052D000F8E7490A8902F5E77047000094C6002004
:1052E000014BDB6F1847000098C6002010B501483D
:1052F000FDF73EFE94A80110132310B510481C784A
:10530000FFF78EFB0100012C0AD003DD80220D483F
:1053100000F07CF80C48FFF77BFB0C4B186010BDCD
:10532000084C5422200000F071F82300084A803312
:105330002168002900D122600434A342F8D1E9E7B2
:105340005346000098C600204C33000094C600204D
:10535000ED52001070B504000A4E300015F0D0F97F
:10536000200014F0FFFC0500300015F099F9002D25
:1053700005D0054B2C199C4201D8280070BD03486C
:10538000FDF7F6FDB00D002000000420B0AC0110C8
:1053900070B505000C000B4E300015F0B1F9280077
:1053A000210014F07FFC0500300015F079F9002D84
:1053B00005D0054B2C199C4201D8280070BD03482C
:1053C000FDF7D6FDB00D002000000420B0AC0110A8
:1053D00070B50400054D280015F092F9200014F076
:1053E000CBFC280015F05CF970BDC046B00D002064
:1053F00001480421014B184710050020314A0010D4
:10540000014B1B681847000010050020014B5B682A
:105410001847000010050020030010B50800110017
:105420001B68984710BDC046F0B546464F46D64665
:10543000C0B5437C80460E001700002B46D0002AE2
:105440003FDD4B1E9946244B0125002400209A463F
:105450000DE04B461B5D0D3B5A425341325DDBB2C2
:105460000A2A0BD02B00013401359F421ADD002C93
:10547000EFD14346325D1B7C0A2AF3D1002BF1D1D8
:10548000A04204DA4346211A1B6830189847434665
:1054900050461B6802219847013428002B00013533
:1054A0009F42E4DC874204DD4346391A1B6830180A
:1054B0009847F619013E33780D3B5A425341424614
:1054C0001374E0BCBA46B146A846F0BD03681100AB
:1054D00030009847F5E7C04624AD0110F0B5C64648
:1054E0000C000968060000B5802906D04B1C23601B
:1054F0006418267180BCB846F0BD0F4B1D68002DA6
:1055000016D0231D98460D4F02E0ED68002D0FD0F8
:105510002B68002BF9D03B68002B01D0AB42F4D1B3
:10552000280041462268FFF77FFFED68002DEFD18C
:1055300001230021DBE7C046EC250020F8250020F0
:10554000F0B5DE4657464E464546E0B583B00D0001
:1055500091461C00060003F037F8324B070001A902
:1055600018009A4615F0BCF88046002807D1019B28
:105570009F4204D0504615F0C3F8012398466B1C97
:1055800003D1300014F0E6FE0500002C27D1264F91
:10559000264B1C68002C18D04B46002B21D1244BE5
:1055A000994602E0E468002C0FD02368002BF9D064
:1055B0004B461B68002B01D0A342F3D120002A00E8
:1055C0003100B847E468002CEFD14346002B25D1C9
:1055D00003B0F0BCBB46B246A946A046F0BD154F8D
:1055E000D6E7134B99460A239B4602E0E468002C59
:1055F000EBD02368002BF9D04B461B68002B01D061
:10560000A342F3D12A0031002000B8475A466B4626
:1056100020001A7101A90122B847E7E7504615F0AA
:105620003FF8D5E7B80D002029540010EC250020E4
:10563000F825002019540010F0B5CE46474680B535
:1056400083B06B468046DE1C307002F0BDFF1F4BFE
:10565000040001A91800994615F042F8071E20D051
:105660001B4B1C68002C27D01A4D02E0E468002C6C
:105670000FD02368002BF9D02B68002B01D0A34258
:10568000F4D1200001223100FFF7CEFEE468002CA7
:10569000EFD1002F10D1404603B0C0BCB946B04690
:1056A000F0BD019B9C420BD0484615F029F8084BF1
:1056B00001271C68002CD7D1484614F0F1FFEAE717
:1056C000034B1C68002CCFD1E5E7C046B80D002085
:1056D000EC250020F825002070B5040014F03AFEF7
:1056E00000230100050001222000FFF729FF084BDD
:1056F0001C68002C06D06368002B05D09847E4682E
:10570000002CF8D1280070BDE468002CF3D1F9E733
:10571000EC2500200A4A1368002B05D10CE01A0082
:10572000DB680C32002B07D09842F8D1002902D157
:10573000C3681360C16070470029FCD01060FAE7AD
:10574000EC250020F0B5CE46474680B5A5B00D004B
:10575000040002F039FF2D4B070003A918009846FA
:1057600014F0BEFF061E06D1039B9F4203D04046A5
:1057700014F0C6FF01368422002103A8FFF740FE83
:105780002B002200224803A9FFF70CF9039B070016
:10579000002B14D11F4B1C68002C06D06368002B13
:1057A0000BD09847E468002CF8D1002E27D13800A0
:1057B00025B0C0BCB946B046F0BDE468ECE7154B77
:1057C0001D689946002D1ED0134C02E0ED68002D97
:1057D00011D02B68002BF9D02368002B01D0AB42ED
:1057E000F4D1039B28001A0004A90193FFF71CFEC3
:1057F000ED68002DEDD14B4603951C68CCE7404683
:1058000014F04EFFD3E70395CFE7C046B80D002054
:10581000DD540010EC250020F82500200FB400B561
:1058200083B004A901C90191FFF78CFF03B008BC44
:1058300004B0184710B500F03DF910BD7047C046E0
:105840000022014B1A70704713C902204B790020C7
:10585000FF2B0BD18B79002B08D1CB79012B05D1F4
:10586000082A03D98A78024B09301A707047C0465B
:1058700013C902200120704770B5002915D11549C0
:105880005379107909781B0203430020994200D014
:1058900070BD5378012B0AD0022BF9D1002064226D
:1058A0000021FDF74DFD0120F2E70120F0E794789B
:1058B000D278050012021443D20502D5620A934041
:1058C0001D000548FFF7A4F87F21030021402800B0
:1058D0009847C04613C902205542000001230370B7
:1058E0000048704728AD011048780B788A7800028C
:1058F0001843120410439622CB7810B51B060343BD
:10590000D200934200D010BD0348FFF781F8002178
:10591000030008009847C0465542000070B5184C77
:1059200082B006000D00200001A914F0D9FE002865
:1059300008D1D0231B061B68019A9A421CD0200074
:1059400014F0DEFE002001F01FFE002807D1032521
:105950006D42200014F0A4FE280002B070BD0020AB
:1059600001F02AFE0028F2D02A003100002001F0C8
:105970002FFE051EEBD0ECE703256D42ECE7C04699
:105980009CC70020F0B5DE464F464646C0B5334BB7
:1059900082B081460D00180001A99B4614F0A0FEBC
:1059A000002808D1D0231B061B68019A9A424FD0C9
:1059B000584614F0A5FE002001F0E6FD00283FD077
:1059C0000024002D41DD264E11E04B460020191920
:1059D00001F072FE804600F065FE002001F030FE0E
:1059E000FCF744FF306071604444AC422DDA002083
:1059F00001F07CFE2F1B0200B84200DD3A00002AB5
:105A0000E3D100F04FFE002001F01AFE002001F06B
:105A1000BBFD002819D0002001F068FE0028E4D169
:105A2000FCF724FF326873680F00002184460D489C
:105A300012184B419F4208D8D7D19445D5D904E0DC
:105A400000200021064B18605960584614F028FECB
:105A500002B0E0BCBB46B146A846F0BD9CC70020E2
:105A6000E00E002020A1070010B5044B1878FBF7CA
:105A7000DFFFFA200021800010BDC04614C90220BB
:105A800010B5024B1878FBF7D3FF10BD14C90220E4
:105A900010B5074C0021200014F022FE002800D190
:105AA00010BD00F0FFFD200014F0FAFDF8E7C0463D
:105AB0009CC70020F0B5244B85B01B7801F0FEFF99
:105AC0002248FDF793F90120FCF73AFAFF23204C16
:105AD000204920701840FBF7D1FF20780121FBF707
